{"abi":[{"type":"function","name":"query","inputs":[],"outputs":[{"name":"blockNumber","type":"uint256","internalType":"uint256"}],"stateMutability":"view"},{"type":"function","name":"queryCool","inputs":[],"outputs":[{"name":"cool","type":"tuple","internalType":"struct BlockNumber.Cool","components":[{"name":"x","type":"string","internalType":"string"},{"name":"ys","type":"uint256[]","internalType":"uint256[]"},{"name":"fun","type":"tuple","internalType":"struct BlockNumber.Fun","components":[{"name":"cat","type":"string","internalType":"string"}]}]}],"stateMutability":"pure"},{"type":"function","name":"queryFour","inputs":[],"outputs":[{"name":"","type":"bytes","internalType":"bytes"},{"name":"","type":"address","internalType":"address"}],"stateMutability":"pure"},{"type":"function","name":"queryThree","inputs":[],"outputs":[{"name":"","type":"uint256","internalType":"uint256"}],"stateMutability":"view"},{"type":"function","name":"queryTwo","inputs":[],"outputs":[{"name":"x","type":"uint256","internalType":"uint256"},{"name":"y","type":"uint256","internalType":"uint256"}],"stateMutability":"view"}],"bytecode":{"object":"0x608060405234801561001057600080fd5b50610321806100206000396000f3fe608060405234801561001057600080fd5b50600436106100575760003560e01c80632c46b2051461005c57806335007a7a1461006f5780636bbc9c1414610082578063a0b43ed614610097578063db7f255d1461005c575b600080fd5b6040514381526020015b60405180910390f35b6040805143808252602082015201610066565b61008a6100bf565b604051610066919061021c565b604080518082018252600381526201020360e81b6020820152905161006691906001906102ab565b6100c76101a2565b60408051600380825260808201909252600091602082016060803683370190505090506001816000815181106100ff576100ff6102d5565b602002602001018181525050600281600281518110610120576101206102d5565b602002602001018181525050600381600381518110610141576101416102d5565b6020908102919091018101919091526040805160a0810182526002606080830191825261686960f01b608084015290825281840194909452815193840182526004928401928352636d656f7760e01b84830152918352810191909152919050565b604051806060016040528060608152602001606081526020016101d16040518060200160405280606081525090565b905290565b6000815180845260005b818110156101fc576020818501810151868301820152016101e0565b506000602082860101526020601f19601f83011685010191505092915050565b60006020808352835160608285015261023860808501826101d6565b82860151601f1986830381016040880152815180845291850193506000929091908501905b8084101561027d578451825293850193600193909301929085019061025d565b5060408801518782038301606089015251858252935061029f858201856101d6565b98975050505050505050565b6040815260006102be60408301856101d6565b905060018060a01b03831660208301529392505050565b634e487b7160e01b600052603260045260246000fdfea2646970667358221220e8c5d69430acd7260e4e988c876237e9e690c8fb5cf361153ea4369423beea3764736f6c63430008180033","linkReferences":{}},"methodIdentifiers":{"query()":"2c46b205","queryCool()":"6bbc9c14","queryFour()":"a0b43ed6","queryThree()":"db7f255d","queryTwo()":"35007a7a"},"id":17}