{"abi":[{"type":"function","name":"query","inputs":[],"outputs":[{"name":"blockNumber","type":"uint256","internalType":"uint256"}],"stateMutability":"view"},{"type":"function","name":"queryCool","inputs":[],"outputs":[{"name":"cool","type":"tuple","internalType":"struct BlockNumber.Cool","components":[{"name":"x","type":"string","internalType":"string"},{"name":"ys","type":"uint256[]","internalType":"uint256[]"},{"name":"fun","type":"tuple","internalType":"struct BlockNumber.Fun","components":[{"name":"cat","type":"string","internalType":"string"}]}]}],"stateMutability":"pure"},{"type":"function","name":"queryThree","inputs":[],"outputs":[{"name":"","type":"uint256","internalType":"uint256"}],"stateMutability":"view"},{"type":"function","name":"queryTwo","inputs":[],"outputs":[{"name":"x","type":"uint256","internalType":"uint256"},{"name":"y","type":"uint256","internalType":"uint256"}],"stateMutability":"view"}],"bytecode":{"object":"0x608060405234801561001057600080fd5b506102c4806100206000396000f3fe608060405234801561001057600080fd5b506004361061004c5760003560e01c80632c46b2051461005157806335007a7a146100645780636bbc9c1414610077578063db7f255d14610051575b600080fd5b6040514381526020015b60405180910390f35b604080514380825260208201520161005b565b61007f61008c565b60405161005b91906101e9565b61009461016f565b60408051600380825260808201909252600091602082016060803683370190505090506001816000815181106100cc576100cc610278565b6020026020010181815250506002816002815181106100ed576100ed610278565b60200260200101818152505060038160038151811061010e5761010e610278565b6020908102919091018101919091526040805160a0810182526002606080830191825261686960f01b608084015290825281840194909452815193840182526004928401928352636d656f7760e01b84830152918352810191909152919050565b6040518060600160405280606081526020016060815260200161019e6040518060200160405280606081525090565b905290565b6000815180845260005b818110156101c9576020818501810151868301820152016101ad565b506000602082860101526020601f19601f83011685010191505092915050565b60006020808352835160608285015261020560808501826101a3565b82860151601f1986830381016040880152815180845291850193506000929091908501905b8084101561024a578451825293850193600193909301929085019061022a565b5060408801518782038301606089015251858252935061026c858201856101a3565b98975050505050505050565b634e487b7160e01b600052603260045260246000fdfea2646970667358221220efea369fadd714627de611c12bdbd7180cc281b1920e802d93697400910caf7964736f6c63430008170033","linkReferences":{}},"methodIdentifiers":{"query()":"2c46b205","queryCool()":"6bbc9c14","queryThree()":"db7f255d","queryTwo()":"35007a7a"},"id":0}